{
  "address": "0x8174fDDe31E994478a9f9eCe97603348a7773090",
  "abi": [
    {
      "inputs": [
        {
          "internalType": "address",
          "name": "_endpoint",
          "type": "address"
        },
        {
          "internalType": "address",
          "name": "_oApp",
          "type": "address"
        }
      ],
      "stateMutability": "nonpayable",
      "type": "constructor"
    },
    {
      "inputs": [
        {
          "internalType": "address",
          "name": "owner",
          "type": "address"
        }
      ],
      "name": "OwnableInvalidOwner",
      "type": "error"
    },
    {
      "inputs": [
        {
          "internalType": "address",
          "name": "account",
          "type": "address"
        }
      ],
      "name": "OwnableUnauthorizedAccount",
      "type": "error"
    },
    {
      "anonymous": false,
      "inputs": [
        {
          "indexed": true,
          "internalType": "address",
          "name": "user",
          "type": "address"
        },
        {
          "indexed": false,
          "internalType": "bytes32",
          "name": "scoreHash",
          "type": "bytes32"
        }
      ],
      "name": "MetadataStored",
      "type": "event"
    },
    {
      "anonymous": false,
      "inputs": [
        {
          "indexed": true,
          "internalType": "address",
          "name": "previousOwner",
          "type": "address"
        },
        {
          "indexed": true,
          "internalType": "address",
          "name": "newOwner",
          "type": "address"
        }
      ],
      "name": "OwnershipTransferred",
      "type": "event"
    },
    {
      "inputs": [],
      "name": "endpoint",
      "outputs": [
        {
          "internalType": "address",
          "name": "",
          "type": "address"
        }
      ],
      "stateMutability": "view",
      "type": "function"
    },
    {
      "inputs": [
        {
          "internalType": "address",
          "name": "user",
          "type": "address"
        }
      ],
      "name": "getMetadata",
      "outputs": [
        {
          "internalType": "bytes32",
          "name": "docHash",
          "type": "bytes32"
        }
      ],
      "stateMutability": "view",
      "type": "function"
    },
    {
      "inputs": [
        {
          "internalType": "address",
          "name": "_oApp",
          "type": "address"
        },
        {
          "internalType": "bytes32",
          "name": "",
          "type": "bytes32"
        },
        {
          "internalType": "bytes",
          "name": "_message",
          "type": "bytes"
        },
        {
          "internalType": "address",
          "name": "",
          "type": "address"
        },
        {
          "internalType": "bytes",
          "name": "",
          "type": "bytes"
        }
      ],
      "name": "lzCompose",
      "outputs": [],
      "stateMutability": "payable",
      "type": "function"
    },
    {
      "inputs": [],
      "name": "oApp",
      "outputs": [
        {
          "internalType": "address",
          "name": "",
          "type": "address"
        }
      ],
      "stateMutability": "view",
      "type": "function"
    },
    {
      "inputs": [],
      "name": "owner",
      "outputs": [
        {
          "internalType": "address",
          "name": "",
          "type": "address"
        }
      ],
      "stateMutability": "view",
      "type": "function"
    },
    {
      "inputs": [],
      "name": "renounceOwnership",
      "outputs": [],
      "stateMutability": "nonpayable",
      "type": "function"
    },
    {
      "inputs": [
        {
          "internalType": "address",
          "name": "newOwner",
          "type": "address"
        }
      ],
      "name": "transferOwnership",
      "outputs": [],
      "stateMutability": "nonpayable",
      "type": "function"
    },
    {
      "inputs": [
        {
          "internalType": "address",
          "name": "",
          "type": "address"
        }
      ],
      "name": "userMetadata",
      "outputs": [
        {
          "internalType": "bytes32",
          "name": "docHash",
          "type": "bytes32"
        }
      ],
      "stateMutability": "view",
      "type": "function"
    }
  ],
  "transactionHash": "0x169edb6e09b45e81cd3bc662ecbccc3c5b3218b4d64ce3eca0b24da89b25c95e",
  "args": [
    "0x6C7Ab2202C98C4227C5c46f1417D81144DA716Ff",
    "0x31e0A37bda916C0098be8600e6f156D877cb4BA8"
  ],
  "numDeployments": 1,
  "solcInputHash": "fbb6293db8957820e0639a77c7681d1b",
  "bytecode": "0x60c060405234801561001057600080fd5b5060405161066938038061066983398101604081905261002f916100e2565b338061005557604051631e4fbdf760e01b81526000600482015260240160405180910390fd5b61005e81610076565b506001600160a01b039182166080521660a052610115565b600080546001600160a01b038381166001600160a01b0319831681178455604051919092169283917f8be0079c531659141344cd1fd0a4f28419497f9722a3daafe3b4186f6b6457e09190a35050565b80516001600160a01b03811681146100dd57600080fd5b919050565b600080604083850312156100f557600080fd5b6100fe836100c6565b915061010c602084016100c6565b90509250929050565b60805160a0516105296101406000396000818160db01526101f40152600061012701526105296000f3fe60806040526004361061007b5760003560e01c80638da5cb5b1161004e5780638da5cb5b14610160578063d0a102601461017e578063d4618aab14610191578063f2fde38b146101be57600080fd5b80632a50c1461461008057806352ae2879146100c95780635e280f1114610115578063715018a614610149575b600080fd5b34801561008c57600080fd5b506100b661009b3660046103b9565b6001600160a01b031660009081526001602052604090205490565b6040519081526020015b60405180910390f35b3480156100d557600080fd5b506100fd7f000000000000000000000000000000000000000000000000000000000000000081565b6040516001600160a01b0390911681526020016100c0565b34801561012157600080fd5b506100fd7f000000000000000000000000000000000000000000000000000000000000000081565b34801561015557600080fd5b5061015e6101de565b005b34801561016c57600080fd5b506000546001600160a01b03166100fd565b61015e61018c366004610426565b6101f2565b34801561019d57600080fd5b506100b66101ac3660046103b9565b60016020526000908152604090205481565b3480156101ca57600080fd5b5061015e6101d93660046103b9565b6102e9565b6101e6610327565b6101f06000610354565b565b7f00000000000000000000000000000000000000000000000000000000000000006001600160a01b0316876001600160a01b03161461026e5760405162461bcd60e51b81526020600482015260136024820152720496e76616c696420736f75726365204f41707606c1b60448201526064015b60405180910390fd5b60008061027d868801886104c7565b60408051602080820183528382526001600160a01b0385166000818152600183528490209251909255915183815293955091935090917f541a415af59c60cee08a452079eda5ca7005855bd4e3a1be67846f835d35320e910160405180910390a2505050505050505050565b6102f1610327565b6001600160a01b03811661031b57604051631e4fbdf760e01b815260006004820152602401610265565b61032481610354565b50565b6000546001600160a01b031633146101f05760405163118cdaa760e01b8152336004820152602401610265565b600080546001600160a01b038381166001600160a01b0319831681178455604051919092169283917f8be0079c531659141344cd1fd0a4f28419497f9722a3daafe3b4186f6b6457e09190a35050565b6001600160a01b038116811461032457600080fd5b6000602082840312156103cb57600080fd5b81356103d6816103a4565b9392505050565b60008083601f8401126103ef57600080fd5b50813567ffffffffffffffff81111561040757600080fd5b60208301915083602082850101111561041f57600080fd5b9250929050565b600080600080600080600060a0888a03121561044157600080fd5b873561044c816103a4565b965060208801359550604088013567ffffffffffffffff8082111561047057600080fd5b61047c8b838c016103dd565b909750955060608a01359150610491826103a4565b909350608089013590808211156104a757600080fd5b506104b48a828b016103dd565b989b979a50959850939692959293505050565b600080604083850312156104da57600080fd5b82356104e5816103a4565b94602093909301359350505056fea264697066735822122073ae823c4b39a09485af890183d323a105f4a8744b8a1bd662b7291cef04c3b464736f6c63430008160033",
  "devdoc": {
    "errors": {
      "OwnableInvalidOwner(address)": [
        {
          "details": "The owner is not a valid owner account. (eg. `address(0)`)"
        }
      ],
      "OwnableUnauthorizedAccount(address)": [
        {
          "details": "The caller account is not authorized to perform an operation."
        }
      ]
    },
    "kind": "dev",
    "methods": {
      "owner()": {
        "details": "Returns the address of the current owner."
      },
      "renounceOwnership()": {
        "details": "Leaves the contract without owner. It will not be possible to call `onlyOwner` functions. Can only be called by the current owner. NOTE: Renouncing ownership will leave the contract without an owner, thereby disabling any functionality that is only available to the owner."
      },
      "transferOwnership(address)": {
        "details": "Transfers ownership of the contract to a new account (`newOwner`). Can only be called by the current owner."
      }
    },
    "title": "Composer",
    "version": 1
  },
  "userdoc": {
    "kind": "user",
    "methods": {},
    "notice": "Stores a signature and scoreHash after cross-chain approval",
    "version": 1
  },
  "storageLayout": {
    "storage": [
      {
        "astId": 1559,
        "contract": "contracts/Composer.sol:Composer",
        "label": "_owner",
        "offset": 0,
        "slot": "0",
        "type": "t_address"
      },
      {
        "astId": 2395,
        "contract": "contracts/Composer.sol:Composer",
        "label": "userMetadata",
        "offset": 0,
        "slot": "1",
        "type": "t_mapping(t_address,t_struct(Metadata)2390_storage)"
      }
    ],
    "types": {
      "t_address": {
        "encoding": "inplace",
        "label": "address",
        "numberOfBytes": "20"
      },
      "t_bytes32": {
        "encoding": "inplace",
        "label": "bytes32",
        "numberOfBytes": "32"
      },
      "t_mapping(t_address,t_struct(Metadata)2390_storage)": {
        "encoding": "mapping",
        "key": "t_address",
        "label": "mapping(address => struct Composer.Metadata)",
        "numberOfBytes": "32",
        "value": "t_struct(Metadata)2390_storage"
      },
      "t_struct(Metadata)2390_storage": {
        "encoding": "inplace",
        "label": "struct Composer.Metadata",
        "members": [
          {
            "astId": 2389,
            "contract": "contracts/Composer.sol:Composer",
            "label": "docHash",
            "offset": 0,
            "slot": "0",
            "type": "t_bytes32"
          }
        ],
        "numberOfBytes": "32"
      }
    }
  }
}